{
  "contractName": "FlashSwap",
  "abi": [
    {
      "inputs": [
        {
          "internalType": "address",
          "name": "pancakeFactory",
          "type": "address"
        },
        {
          "internalType": "address",
          "name": "apeFactory",
          "type": "address"
        },
        {
          "internalType": "address",
          "name": "wethAddress",
          "type": "address"
        },
        {
          "internalType": "address",
          "name": "apeRouter",
          "type": "address"
        },
        {
          "internalType": "address",
          "name": "pancakeRouter",
          "type": "address"
        },
        {
          "internalType": "address",
          "name": "beneficiaryAddress",
          "type": "address"
        }
      ],
      "stateMutability": "nonpayable",
      "type": "constructor"
    },
    {
      "stateMutability": "payable",
      "type": "receive",
      "payable": true
    },
    {
      "inputs": [
        {
          "internalType": "address",
          "name": "token0",
          "type": "address"
        },
        {
          "internalType": "address",
          "name": "token1",
          "type": "address"
        },
        {
          "internalType": "uint256",
          "name": "amount0",
          "type": "uint256"
        },
        {
          "internalType": "uint256",
          "name": "amount1",
          "type": "uint256"
        },
        {
          "internalType": "address",
          "name": "startFactory",
          "type": "address"
        },
        {
          "internalType": "address",
          "name": "endRouterAddress",
          "type": "address"
        },
        {
          "internalType": "uint256",
          "name": "repay",
          "type": "uint256"
        }
      ],
      "name": "startArbitrage",
      "outputs": [],
      "stateMutability": "nonpayable",
      "type": "function"
    },
    {
      "inputs": [
        {
          "internalType": "address",
          "name": "sender",
          "type": "address"
        },
        {
          "internalType": "uint256",
          "name": "amount0",
          "type": "uint256"
        },
        {
          "internalType": "uint256",
          "name": "amount1",
          "type": "uint256"
        },
        {
          "internalType": "bytes",
          "name": "data",
          "type": "bytes"
        }
      ],
      "name": "pancakeCall",
      "outputs": [],
      "stateMutability": "nonpayable",
      "type": "function"
    }
  ],
  "bytecode": "0x60a06040523480156200001157600080fd5b50604051620019cd380380620019cd833981810160405281019062000037919062000225565b84600160006101000a81548173ffffffffffffffffffffffffffffffffffffffff021916908373ffffffffffffffffffffffffffffffffffffffff16021790555085600260006101000a81548173ffffffffffffffffffffffffffffffffffffffff021916908373ffffffffffffffffffffffffffffffffffffffff1602179055508373ffffffffffffffffffffffffffffffffffffffff1660808173ffffffffffffffffffffffffffffffffffffffff1681525050806000806101000a81548173ffffffffffffffffffffffffffffffffffffffff021916908373ffffffffffffffffffffffffffffffffffffffff16021790555081600360006101000a81548173ffffffffffffffffffffffffffffffffffffffff021916908373ffffffffffffffffffffffffffffffffffffffff16021790555082600460006101000a81548173ffffffffffffffffffffffffffffffffffffffff021916908373ffffffffffffffffffffffffffffffffffffffff160217905550505050505050620002c1565b600080fd5b600073ffffffffffffffffffffffffffffffffffffffff82169050919050565b6000620001ed82620001c0565b9050919050565b620001ff81620001e0565b81146200020b57600080fd5b50565b6000815190506200021f81620001f4565b92915050565b60008060008060008060c08789031215620002455762000244620001bb565b5b60006200025589828a016200020e565b96505060206200026889828a016200020e565b95505060406200027b89828a016200020e565b94505060606200028e89828a016200020e565b9350506080620002a189828a016200020e565b92505060a0620002b489828a016200020e565b9150509295509295509295565b6080516116c662000307600039600081816104210152818161047e015281816104df015281816107000152818161079c0152818161086a015261095601526116c66000f3fe60806040526004361061002d5760003560e01c80630271025e14610039578063848008121461006257610034565b3661003457005b600080fd5b34801561004557600080fd5b50610060600480360381019061005b9190610d47565b61008b565b005b34801561006e57600080fd5b5061008960048036038101906100849190610e4e565b610216565b005b60008373ffffffffffffffffffffffffffffffffffffffff1663e6a4390589896040518363ffffffff1660e01b81526004016100c8929190610ee5565b602060405180830381865afa1580156100e5573d6000803e3d6000fd5b505050506040513d601f19601f820116820180604052508101906101099190610f23565b9050600073ffffffffffffffffffffffffffffffffffffffff168173ffffffffffffffffffffffffffffffffffffffff160361017a576040517f08c379a000000000000000000000000000000000000000000000000000000000815260040161017190610fad565b60405180910390fd5b8073ffffffffffffffffffffffffffffffffffffffff1663022c0d9f87873087876040516020016101ac929190610fdc565b6040516020818303038152906040526040518563ffffffff1660e01b81526004016101da9493929190611095565b600060405180830381600087803b1580156101f457600080fd5b505af1158015610208573d6000803e3d6000fd5b505050505050505050505050565b6000600267ffffffffffffffff811115610233576102326110e1565b5b6040519080825280602002602001820160405280156102615781602001602082028036833780820191505090505b5090506000808484810190610276919061114e565b9150915060008060003373ffffffffffffffffffffffffffffffffffffffff16630dfe16816040518163ffffffff1660e01b8152600401602060405180830381865afa1580156102ca573d6000803e3d6000fd5b505050506040513d601f19601f820116820180604052508101906102ee9190610f23565b905060003373ffffffffffffffffffffffffffffffffffffffff1663d21220a76040518163ffffffff1660e01b8152600401602060405180830381865afa15801561033d573d6000803e3d6000fd5b505050506040513d601f19601f820116820180604052508101906103619190610f23565b905060008b146103715781610373565b805b876000815181106103875761038661118e565b5b602002602001019073ffffffffffffffffffffffffffffffffffffffff16908173ffffffffffffffffffffffffffffffffffffffff168152505060008b146103cf57806103d1565b815b876001815181106103e5576103e461118e565b5b602002602001019073ffffffffffffffffffffffffffffffffffffffff16908173ffffffffffffffffffffffffffffffffffffffff16815250507f000000000000000000000000000000000000000000000000000000000000000073ffffffffffffffffffffffffffffffffffffffff168273ffffffffffffffffffffffffffffffffffffffff1614610478578a61047a565b895b93507f000000000000000000000000000000000000000000000000000000000000000073ffffffffffffffffffffffffffffffffffffffff168273ffffffffffffffffffffffffffffffffffffffff16146104d557896104d7565b8a5b9250505060007f000000000000000000000000000000000000000000000000000000000000000073ffffffffffffffffffffffffffffffffffffffff16866000815181106105285761052761118e565b5b602002602001015173ffffffffffffffffffffffffffffffffffffffff161461056c578560008151811061055f5761055e61118e565b5b6020026020010151610589565b856001815181106105805761057f61118e565b5b60200260200101515b90506000831115610954578073ffffffffffffffffffffffffffffffffffffffff1663095ea7b386856040518363ffffffff1660e01b81526004016105cf929190610fdc565b6020604051808303816000875af11580156105ee573d6000803e3d6000fd5b505050506040513d601f19601f8201168201806040525081019061061291906111f5565b5060008573ffffffffffffffffffffffffffffffffffffffff166318cbafe58560008a30426040518663ffffffff1660e01b8152600401610657959493929190611325565b6000604051808303816000875af1158015610676573d6000803e3d6000fd5b505050506040513d6000823e3d601f19601f8201168201806040525081019061069f91906114a3565b905084816001815181106106b6576106b561118e565b5b6020026020010151116106fe576040517f08c379a00000000000000000000000000000000000000000000000000000000081526004016106f59061155e565b60405180910390fd5b7f000000000000000000000000000000000000000000000000000000000000000073ffffffffffffffffffffffffffffffffffffffff1663d0e30db08260018151811061074e5761074d61118e565b5b60200260200101516040518263ffffffff1660e01b81526004016000604051808303818588803b15801561078157600080fd5b505af1158015610795573d6000803e3d6000fd5b50505050507f000000000000000000000000000000000000000000000000000000000000000073ffffffffffffffffffffffffffffffffffffffff1663a9059cbb33876040518363ffffffff1660e01b81526004016107f5929190610fdc565b6020604051808303816000875af1158015610814573d6000803e3d6000fd5b505050506040513d601f19601f8201168201806040525081019061083891906111f5565b50600085826001815181106108505761084f61118e565b5b602002602001015161086291906115ad565b111561094e577f000000000000000000000000000000000000000000000000000000000000000073ffffffffffffffffffffffffffffffffffffffff1663a9059cbb60008054906101000a900473ffffffffffffffffffffffffffffffffffffffff1687846001815181106108da576108d961118e565b5b60200260200101516108ec91906115ad565b6040518363ffffffff1660e01b8152600401610909929190610fdc565b6020604051808303816000875af1158015610928573d6000803e3d6000fd5b505050506040513d601f19601f8201168201806040525081019061094c91906111f5565b505b50610c92565b7f000000000000000000000000000000000000000000000000000000000000000073ffffffffffffffffffffffffffffffffffffffff16632e1a7d4d836040518263ffffffff1660e01b81526004016109ad91906115e1565b600060405180830381600087803b1580156109c757600080fd5b505af11580156109db573d6000803e3d6000fd5b5050505060008573ffffffffffffffffffffffffffffffffffffffff16637ff36ab54760008a30426040518663ffffffff1660e01b8152600401610a2294939291906115fc565b60006040518083038185885af1158015610a40573d6000803e3d6000fd5b50505050506040513d6000823e3d601f19601f82011682018060405250810190610a6a91906114a3565b90508481600181518110610a8157610a8061118e565b5b602002602001015111610ac9576040517f08c379a0000000000000000000000000000000000000000000000000000000008152600401610ac09061155e565b60405180910390fd5b8173ffffffffffffffffffffffffffffffffffffffff1663a9059cbb33876040518363ffffffff1660e01b8152600401610b04929190610fdc565b6020604051808303816000875af1158015610b23573d6000803e3d6000fd5b505050506040513d601f19601f82011682018060405250810190610b4791906111f5565b5060008582600181518110610b5f57610b5e61118e565b5b6020026020010151610b7191906115ad565b1115610c90578173ffffffffffffffffffffffffffffffffffffffff1663a9059cbb60008054906101000a900473ffffffffffffffffffffffffffffffffffffffff168473ffffffffffffffffffffffffffffffffffffffff166370a08231306040518263ffffffff1660e01b8152600401610bed9190611648565b602060405180830381865afa158015610c0a573d6000803e3d6000fd5b505050506040513d601f19601f82011682018060405250810190610c2e9190611663565b6040518363ffffffff1660e01b8152600401610c4b929190610fdc565b6020604051808303816000875af1158015610c6a573d6000803e3d6000fd5b505050506040513d601f19601f82011682018060405250810190610c8e91906111f5565b505b505b5050505050505050505050565b6000604051905090565b600080fd5b600080fd5b600073ffffffffffffffffffffffffffffffffffffffff82169050919050565b6000610cde82610cb3565b9050919050565b610cee81610cd3565b8114610cf957600080fd5b50565b600081359050610d0b81610ce5565b92915050565b6000819050919050565b610d2481610d11565b8114610d2f57600080fd5b50565b600081359050610d4181610d1b565b92915050565b600080600080600080600060e0888a031215610d6657610d65610ca9565b5b6000610d748a828b01610cfc565b9750506020610d858a828b01610cfc565b9650506040610d968a828b01610d32565b9550506060610da78a828b01610d32565b9450506080610db88a828b01610cfc565b93505060a0610dc98a828b01610cfc565b92505060c0610dda8a828b01610d32565b91505092959891949750929550565b600080fd5b600080fd5b600080fd5b60008083601f840112610e0e57610e0d610de9565b5b8235905067ffffffffffffffff811115610e2b57610e2a610dee565b5b602083019150836001820283011115610e4757610e46610df3565b5b9250929050565b600080600080600060808688031215610e6a57610e69610ca9565b5b6000610e7888828901610cfc565b9550506020610e8988828901610d32565b9450506040610e9a88828901610d32565b935050606086013567ffffffffffffffff811115610ebb57610eba610cae565b5b610ec788828901610df8565b92509250509295509295909350565b610edf81610cd3565b82525050565b6000604082019050610efa6000830185610ed6565b610f076020830184610ed6565b9392505050565b600081519050610f1d81610ce5565b92915050565b600060208284031215610f3957610f38610ca9565b5b6000610f4784828501610f0e565b91505092915050565b600082825260208201905092915050565b7f5468697320706f6f6c20646f6573206e6f742065786973740000000000000000600082015250565b6000610f97601883610f50565b9150610fa282610f61565b602082019050919050565b60006020820190508181036000830152610fc681610f8a565b9050919050565b610fd681610d11565b82525050565b6000604082019050610ff16000830185610ed6565b610ffe6020830184610fcd565b9392505050565b600081519050919050565b600082825260208201905092915050565b60005b8381101561103f578082015181840152602081019050611024565b60008484015250505050565b6000601f19601f8301169050919050565b600061106782611005565b6110718185611010565b9350611081818560208601611021565b61108a8161104b565b840191505092915050565b60006080820190506110aa6000830187610fcd565b6110b76020830186610fcd565b6110c46040830185610ed6565b81810360608301526110d6818461105c565b905095945050505050565b7f4e487b7100000000000000000000000000000000000000000000000000000000600052604160045260246000fd5b600061111b82610cb3565b9050919050565b61112b81611110565b811461113657600080fd5b50565b60008135905061114881611122565b92915050565b6000806040838503121561116557611164610ca9565b5b600061117385828601611139565b925050602061118485828601610d32565b9150509250929050565b7f4e487b7100000000000000000000000000000000000000000000000000000000600052603260045260246000fd5b60008115159050919050565b6111d2816111bd565b81146111dd57600080fd5b50565b6000815190506111ef816111c9565b92915050565b60006020828403121561120b5761120a610ca9565b5b6000611219848285016111e0565b91505092915050565b6000819050919050565b6000819050919050565b600061125161124c61124784611222565b61122c565b610d11565b9050919050565b61126181611236565b82525050565b600081519050919050565b600082825260208201905092915050565b6000819050602082019050919050565b61129c81610cd3565b82525050565b60006112ae8383611293565b60208301905092915050565b6000602082019050919050565b60006112d282611267565b6112dc8185611272565b93506112e783611283565b8060005b838110156113185781516112ff88826112a2565b975061130a836112ba565b9250506001810190506112eb565b5085935050505092915050565b600060a08201905061133a6000830188610fcd565b6113476020830187611258565b818103604083015261135981866112c7565b90506113686060830185610ed6565b6113756080830184610fcd565b9695505050505050565b6113888261104b565b810181811067ffffffffffffffff821117156113a7576113a66110e1565b5b80604052505050565b60006113ba610c9f565b90506113c6828261137f565b919050565b600067ffffffffffffffff8211156113e6576113e56110e1565b5b602082029050602081019050919050565b60008151905061140681610d1b565b92915050565b600061141f61141a846113cb565b6113b0565b9050808382526020820190506020840283018581111561144257611441610df3565b5b835b8181101561146b578061145788826113f7565b845260208401935050602081019050611444565b5050509392505050565b600082601f83011261148a57611489610de9565b5b815161149a84826020860161140c565b91505092915050565b6000602082840312156114b9576114b8610ca9565b5b600082015167ffffffffffffffff8111156114d7576114d6610cae565b5b6114e384828501611475565b91505092915050565b7f4661696c656420746f2067657420656e6f7567682066726f6d2073776170207460008201527f6f20726570617900000000000000000000000000000000000000000000000000602082015250565b6000611548602783610f50565b9150611553826114ec565b604082019050919050565b600060208201905081810360008301526115778161153b565b9050919050565b7f4e487b7100000000000000000000000000000000000000000000000000000000600052601160045260246000fd5b60006115b882610d11565b91506115c383610d11565b92508282039050818111156115db576115da61157e565b5b92915050565b60006020820190506115f66000830184610fcd565b92915050565b60006080820190506116116000830187611258565b818103602083015261162381866112c7565b90506116326040830185610ed6565b61163f6060830184610fcd565b95945050505050565b600060208201905061165d6000830184610ed6565b92915050565b60006020828403121561167957611678610ca9565b5b6000611687848285016113f7565b9150509291505056fea2646970667358221220916728134931187ecc90bd9d14ecc30447996f5ac600515a4b9063e4f8eac31d64736f6c63430008110033",
  "immutableReferences": {
    "13": [
      {
        "length": 32,
        "start": 1057
      },
      {
        "length": 32,
        "start": 1150
      },
      {
        "length": 32,
        "start": 1247
      },
      {
        "length": 32,
        "start": 1792
      },
      {
        "length": 32,
        "start": 1948
      },
      {
        "length": 32,
        "start": 2154
      },
      {
        "length": 32,
        "start": 2390
      }
    ]
  },
  "source": "// SPDX-License-Identifier: MIT\npragma solidity 0.8.17;\npragma experimental ABIEncoderV2;\n\nimport './utils/SafeMath.sol';\nimport './UniswapV2Library.sol';\nimport './interfaces/IERC20.sol';\nimport './interfaces/IUniswapV2Pair.sol';\nimport './interfaces/IUniswapV2Factory.sol';\nimport './interfaces/IUniswapV2Router01.sol';\nimport './interfaces/IUniswapV2Router02.sol';\nimport './interfaces/IWETH.sol'; \n\ncontract FlashSwap {\n    IWETH immutable WETH;\n    address Beneficiary;\n    address ApeSwapFactory;\n    address PancakeFactory;\n    address PancakeRouter;\n    address ApeRouter;\n\n    constructor(address pancakeFactory, address apeFactory, address wethAddress , address apeRouter, address pancakeRouter, address beneficiaryAddress) {\n         ApeSwapFactory = apeFactory;\n         PancakeFactory = pancakeFactory;\n         WETH = IWETH(wethAddress);\n         Beneficiary = beneficiaryAddress;\n         PancakeRouter = pancakeRouter;\n         ApeRouter = apeRouter; \n    }\n    \n    function startArbitrage(\n      address token0,\n      address token1,\n      uint amount0, \n      uint amount1,\n      address startFactory,\n      address endRouterAddress,\n      uint repay\n    ) external {  \n      address pairAddress =   IUniswapV2Factory(startFactory).getPair(token0, token1);\n      require(pairAddress != address(0), 'This pool does not exist');\n      IUniswapV2Pair(pairAddress).swap(\n        amount0, \n        amount1, \n        address(this), \n        abi.encode(endRouterAddress, repay) //not empty bytes param will trigger flashloan\n      );\n  }\n    \n    receive() external payable {}\n\n function pancakeCall(address sender, uint amount0, uint amount1, bytes calldata data) external {\n        address[] memory path = new address[](2);\n       ( address endRouter, uint repay) = abi.decode(data, (address, uint));\n        uint amountToken;\n        uint amountEth;\n        \n        \n        // scope for token{0,1}, avoids stack too deep errors\n        {\n        address token0 = IUniswapV2Pair(msg.sender).token0();\n        address token1 = IUniswapV2Pair(msg.sender).token1();\n        path[0] = amount0 == 0 ? token1 : token0; \n        path[1] = amount0 == 0 ? token0 : token1; \n\n        amountToken = token0 == address(WETH) ? amount1 : amount0;    \n        amountEth = token0 == address(WETH) ? amount0 : amount1;\n\n        }\n        IERC20 token = IERC20(path[0] == address(WETH) ? path[1] : path[0]);\n\n        if (amountToken > 0) {\n            token.approve(endRouter, amountToken);\n            uint[] memory amountReceived = IUniswapV2Router02(endRouter).swapExactTokensForETH(amountToken, 0, path,address(this), block.timestamp);\n            require(amountReceived[1] > repay, \"Failed to get enough from swap to repay\"); \n            WETH.deposit{value: amountReceived[1]}();\n            WETH.transfer(msg.sender, repay);\n              if(amountReceived[1] - repay > 0) {\n                WETH.transfer(Beneficiary, (amountReceived[1] - repay));\n              }\n        } else {\n            WETH.withdraw(amountEth);\n            uint [] memory amountReceived = IUniswapV2Router02(endRouter).swapExactETHForTokens{value: address(this).balance}(0, path, address(this), block.timestamp);\n            require(amountReceived[1] > repay, \"Failed to get enough from swap to repay\"); // fail if we didn't get enough tokens back to repay our flash loan\n            token.transfer(msg.sender, repay); // return tokens to V2 pair\n            if(amountReceived[1] - repay > 0) {\n              token.transfer(Beneficiary, token.balanceOf(address(this))); \n              }\n            \n        }\n }\n}\n",
  "sourcePath": "/Users/glaksmono/Documents/bsc-flashswap/contracts/Flashloan.sol",
  "compiler": {
    "name": "solc",
    "version": "0.8.17+commit.8df45f5f.Emscripten.clang"
  },
  "schemaVersion": "3.4.10",
  "updatedAt": "2022-10-11T08:37:36.730Z",
  "networkType": "ethereum",
  "devdoc": {
    "kind": "dev",
    "methods": {},
    "version": 1
  },
  "userdoc": {
    "kind": "user",
    "methods": {},
    "version": 1
  }
}